S00D0000626C696E6B2E7372656307
S11300000C942A000C9434000C9434000C943400A6
S11300100C9434000C9434000C9434000C9434008C
S11300200C9434000C9434000C9434000C9434007C
S11300300C9434000C9434000C9434000C9434006C
S11300400C9434000C9434000C9434000C9434005C
S11300500C94340011241FBECFE5D4E0DEBFCDBF25
S11300600E9436000C9444000C9400008FEF8ABB6D
S113007081E08BBB80EA9FE00197F1F71BBA80EB2C
S10F008096E30197F1F7F4CFF894FFCF5A
S9030000FC
