S00B000070776D2E73726563C5
S11300000C942A000C9447000C9447000C9447006D
S11300100C9447000C9447000C9447000C94470040
S11300200C9447000C9447000C9447000C94470030
S11300300C9447000C9447000C9447000C94470020
S11300400C9447000C9447000C9447000C94470010
S11300500C94470011241FBECFE5D4E0DEBFCDBF12
S113006010E0A0E6B0E0EAE9F4E002C005900D92E9
S1130070AE39B107D9F720E0AEE9B0E001C01D9276
S1130080AF39B207E1F70E944C010C944B020C9477
S11300900000962F92959F7092BB811104C082B389
S11300A08F7E82BB03C082B3806182BB80919E003D
S11300B08F5F80939E0082B3806282BB80919E009A
S11300C08F5F80939E0080919E008F5F80939E003F
S11300D082B38F7D82BB80919E008F5F80939E0050
S11300E080916000882319F010926000089582B313
S11300F0807F82BB82B36F70682B62BB80919E004D
S11301008F5F80939E0082B3806282BB80919E0049
S11301108F5F80939E0080919E008F5F80939E00EE
S113012082B38F7D82BB80919E008F5F80939E00FF
S1130130089512BA8FEF81BB2FEF89E698E1215021
S113014080409040E1F700C000006CE280E00E9433
S1130150490025E82A95F1F700006CE280E00E944E
S1130160490085E88A95F1F700006EE080E00E947E
S1130170490095E89A95F1F7000066E080E00E9456
S1130180490025E82A95F1F7000061E080E00E942B
S113019049008FE697E10197F1F700C00000089548
S11301A08150823090F4662381F0613170F490E0E4
S11301B00296615020E4829F600D112480E00E9429
S11301C0490085E88A95F1F700000895682F81E0D9
S11301D00E94490085E88A95F1F700000895CF93BD
S11301E0DF93EC0103C021960E94E600888181110F
S11301F0FACFDF91CF910895CF93DF93CDB7DEB7D8
S113020063970FB6F894DEBF0FBECDBF81E1E1E680
S1130210F0E0DE01119601900D928A95E1F780E1FC
S11302208ABB80E00BC08AE08A95F1F700C089B3ED
S113023080958F7031F49AB3990F9ABB9AB3911148
S1130240F2CF9AB39923F1F02AB31A8A04C09A8997
S11302509F5F9A8B26952031D1F71B8A04C09B8916
S11302609F5F9B8B86958130D1F78A899B89880F04
S1130270880F890FE1E0F0E0EC0FFD1FE80FF11D9E
S1130280808101C08FE763960FB6F894DEBF0FBE7E
S1130290CDBFDF91CF910895CF93DF93CDB7DEB774
S11302A02A970FB6F894DEBF0FBECDBF0E94990007
S11302B08CE683BF80E88CBF87B3886087BB61E02E
S11302C081E00E94D00082E790E00E94EF000F2EB0
S11302D0F2E3EF2EF12CF02D10E00FE70F2EFFE7E5
S11302E0DF2EF02D183C59F40E94FC008F3749F0A2
S11302F02FE7D21651F0D82E10E080E00AC080E03B
S113030008C0D82E10E080E004C0082FD82E10E0DA
S113031081E01F5F882309F43EC09DEB900F92306B
S1130320D0F5033461F485E0E80EF11C95E6E91696
S1130330F1042CF00F2EF4E6EF2EF12CF02D043402
S113034031F425E0E21AF10812F4E12CF12C2FEF3C
S11303502E9DC0012F9D900D112464E670E00E9433
S1130360EE0161506CBF4AE0BE016F5F7F4FC70171
S11303700E94160261E082E00E94D0008EE790E0C5
S11303800E94EF00CE0101960E94EF0081E890E008
S11303900E94EF0080E0882309F4A4CF003308F41E
S11303A0A1CF0A3308F09ECF61E081E00E94D00023
S11303B085E890E00E94EF008FEF91E12AE78150F9
S11303C090402040E1F700C0000061E081E00E941D
S11303D0D00082E990E00E94EF0084CF97FB072EC3
S11303E016F4009407D077FD09D00E94020207FC9E
S11303F005D03EF4909581959F4F08957095619531
S11304007F4F0895AA1BBB1B51E107C0AA1FBB1F46
S1130410A617B70710F0A61BB70B881F991F5A958C
S1130420A9F780959095BC01CD010895BB274A306A
S113043031F4992322F4BDE2909581959F4F0C9459
S11304402202BB27FB015527AA27880F991FAA1F41
S1130450A41710F0A41B83955051B9F7A05DAA33DB
S113046008F0A95DA193009779F7B111B1931192A6
S1130470CB010C943B02DC01FC01672F71917723C3
S1130480E1F7329704C07C916D9370836291AE174B
S10D0490BF07C8F30895F894FFCFE6
S113049A013132334134353642373839432A30232D
S11304AA44004173746570742020202020004C3D60
S11304BA002520200043616C63756C657A20202036
S11104CA20004173746570742020202000000F
S9030000FC
