S00F000066756E637469692E7372656323
S11300000C942A000C9434000C9434000C943400A6
S11300100C9434000C9434000C9434000C9434008C
S11300200C9434000C9434000C9434000C9434007C
S11300300C9434000C9434000C9434000C9434006C
S11300400C9434000C9434000C9434000C9434005C
S11300500C94340011241FBECFE5D4E0DEBFCDBF25
S11300600E9436000C9458000C9400008FEF8ABB59
S113007017BA26B3922F9770392F3695432F4170B4
S1130080892F86958695582F51703827232720FD70
S113009002C020E001C021E0933008F42260352F33
S11300A0309534238923832B09F024602BBBE1CFC3
S10700B0F894FFCFEE
S9030000FC
