S0100000746573745F4C43442E7372656322
S11300000C942A000C9447000C9447000C9447006D
S11300100C9447000C9447000C9447000C94470040
S11300200C9447000C9447000C9447000C94470030
S11300300C9447000C9447000C9447000C94470020
S11300400C9447000C9447000C9447000C94470010
S11300500C94470011241FBECFE5D4E0DEBFCDBF12
S113006010E0A0E6B0E0ECE5F3E002C005900D92EC
S1130070A039B107D9F720E0A0E9B0E001C01D9292
S1130080A139B207E1F70E9407010C94AC010C946A
S11300900000962F92959F7092BB811104C082B389
S11300A08F7E82BB03C082B3806182BB809190004B
S11300B08F5F8093900082B3806282BB80919000B6
S11300C08F5F80939000809190008F5F8093900069
S11300D082B38F7D82BB809190008F5F809390006C
S11300E080916000882319F010926000089582B313
S11300F0807F82BB82B36F70682B62BB809190005B
S11301008F5F8093900082B3806282BB8091900065
S11301108F5F80939000809190008F5F8093900018
S113012082B38F7D82BB809190008F5F809390001B
S1130130089512BA8FEF81BB2FEF89E698E1215021
S113014080409040E1F700C000006CE280E00E9433
S1130150490025E82A95F1F700006CE280E00E944E
S1130160490085E88A95F1F700006EE080E00E947E
S1130170490095E89A95F1F7000066E080E00E9456
S1130180490025E82A95F1F7000061E080E00E942B
S113019049008FE697E10197F1F700C00000089548
S11301A061E080E00E9449008FE99FE00197F1F748
S11301B000C0000008958150823090F4662381F0DD
S11301C0613170F490E00296615020E4829F600DEA
S11301D0112480E00E94490085E88A95F1F7000027
S11301E00895682F81E00E94490085E88A95F1F717
S11301F000000895CF93DF93EC0103C021960E9481
S1130200F10088818111FACFDF91CF9108950E9486
S1130210990088E40E94F1002FEF89E698E12150CB
S113022080409040E1F700C000000E94D0002FEF12
S113023084E39CE0215080409040E1F700C000003E
S113024083E890E00E94FA0067E082E00E94DB000D
S113025089E890E00E94FA002FEF89E698E12150A6
S113026080409040E1F700C000000E94D0002FEFD2
S113027084E39CE0215080409040E1F700C00000FE
S113028061E081E00E94DB00C0E0D0E015C0FE0127
S1130290EE58FF4F80810E94F1006C2F6E5F81E069
S11302A00E94DB002FEF84E39CE0215080409040CB
S11302B0E1F700C000002196C031D10544F361E0AC
S11302C082E00E94DB0081E690E00E94FA0060E197
S11302D082E00E94DB00C0E1D0E00EC06C2F82E01F
S11302E00E94DB002FEF84E39CE02150804090408B
S11302F0E1F700C0000021971C161D067CF360E1A5
S113030081E00E94DB00C0E1D0E00EC06C2F81E0F0
S11303100E94DB002FEF84E39CE02150804090405A
S1130320E1F700C0000021971C161D067CF32FEF97
S113033084E39CE0215080409040E1F700C000003D
S11303400E94D0002FEF84E39CE021508040904035
S10F0350E1F700C000005DCFF894FFCF7F
S113035C016768696A6B6C6D6E6F7071727374751A
S113036C7600303132333435363738396162636470
S113037C65660048656C6C6F006D6963726F210073
S9030000FC
