S00F0000505377697463682E7372656353
S11300000C9432000C943C000C943C000C943C0086
S11300100C943C000C943C000C943C000C943C006C
S11300200C943C000C943C000C943C000C943C005C
S11300300C943C000C943C000C943C000C943C004C
S11300400C943C000C943C000C943C000C943C003C
S11300500C943C0048004B004E00510054005700E3
S11300605A005D0011241FBECFE5D4E0DEBFCDBF32
S11300700E943E000C9466000C9400008FEF8ABB33
S113008017BAE6B3E770F0E0E65DFF4F0C9460004A
S11300908FE38BBBF6CF86E08BBBF3CF8BE58BBBBB
S11300A0F0CF8FE48BBBEDCF86E68BBBEACF8DE63A
S11300B08BBBE7CF8DE78BBBE4CF87E08BBBE1CF76
S11300C0EE0FFF1F0590F491E02D0994F894FFCFF3
S9030000FC
