:100000000C942A000C9447000C9447000C94470071
:100010000C9447000C9447000C9447000C94470044
:100020000C9447000C9447000C9447000C94470034
:100030000C9447000C9447000C9447000C94470024
:100040000C9447000C9447000C9447000C94470014
:100050000C94470011241FBECFE5D4E0DEBFCDBF16
:1000600010E0A0E6B0E0E2EAF9E002C005900D92EF
:10007000A838B107D9F720E0A8E8B0E001C01D9288
:10008000A938B207E1F70E9492000C94CF040C94B7
:100090000000CF93DF93CDB7DEB761970FB6F8942A
:1000A000DEBF0FBECDBF81E1E1E6F0E0DE011196DB
:1000B00001900D928A95E1F780E18ABB80E00BC048
:1000C0008AE08A95F1F700C089B380958F7031F48A
:1000D0009AB3990F9ABB9AB39111F2CF8823C1F0CA
:1000E0009AB320E002C02F5F969594FFFCCF90E07A
:1000F00002C09F5F86958130E1F7220F220F920F99
:10010000E1E0F0E0EC0FFD1FE90FF11D808101C07F
:100110008FE761960FB6F894DEBF0FBECDBFDF91BB
:10012000CF910895CF93DF93CDB7DEB761970FB628
:10013000F894DEBF0FBECDBF1ABA1BBA0E9482016F
:100140008EE185BD89EF83BD212C312CE12CF12C72
:100150000F2EF9E06F2EF02D0F2EFDE18F2EF02DDA
:10016000912CB12C10E000E00F2EFFE77F2EF02D38
:1001700001C0B12C183C31F50E9449009FE779126B
:100180000BC08F3749F091B3906891BB1701582E7F
:10019000CC24C394D12C01E0C114D10471F0970197
:1001A000221933092536310558F091B39F7791BB59
:1001B000782EC12CD12C10E005C0782E10E002C0A2
:1001C000782E10E0002341F061E081E00E94B90147
:1001D000852D0E94CF0100E01F5F08B607FECACF41
:1001E00088B7806888BFB39488E0E80EF11C9DE76B
:1001F000B912C0CF93948CE398120FC083948812E5
:1002000007C0639498E1691629F0812C912C05C0F0
:10021000912C03C0612C812C912C1F929F921F92D4
:100220008F921F926F9282E790E09F938F93CE01FF
:1002300001965C019F938F930E94E50161E082E04B
:100240000E94B901C5010E94D8010FB6F894DEBF23
:100250000FBECDBF08B607FE8CCF80E890E00E94AD
:10026000D801FFCF962F92959F7092BB811104C049
:1002700082B38F7E82BB03C082B3806182BB8091D8
:1002800088008F5F8093880082B3806282BB8091F8
:1002900088008F5F80938800809188008F5F8093B3
:1002A000880082B38F7D82BB809188008F5F8093AE
:1002B000880080916000882319F0109260000895F2
:1002C00082B3807F82BB82B36F70682B62BB8091E8
:1002D00088008F5F8093880082B3806282BB8091A8
:1002E00088008F5F80938800809188008F5F809363
:1002F000880082B38F7D82BB809188008F5F80935E
:100300008800089512BA8FE381BB2FEF89E698E148
:10031000215080409040E1F700C000006CE280E096
:100320000E94320125E82A95F1F700006CE280E096
:100330000E94320185E88A95F1F700006EE080E0C6
:100340000E94320195E89A95F1F7000066E080E09E
:100350000E94320125E82A95F1F7000061E080E073
:100360000E9432018FE697E10197F1F700C000008B
:1003700008958150823090F4662381F0613170F4E9
:1003800090E00296615020E4829F600D112480E08D
:100390000E94320185E88A95F1F700000895682FE0
:1003A00081E00E94320185E88A95F1F70000089506
:1003B000CF93DF93EC0103C021960E94CF01888187
:1003C0008111FACFDF91CF910895AEE0B0E0EBEE6E
:1003D000F1E00C94A6040D891E8986E08C831A83B3
:1003E00009838FEF9FE79E838D83AE01475E5F4F4A
:1003F0006F89788DCE0101960E940702EF81F88502
:10040000E00FF11F10822E96E4E00C94C204ABE0E2
:10041000B0E0EDE0F2E00C9498046C017B018A01FD
:10042000FC0117821682838181FFCCC1CE01019627
:100430003C01F6019381F70193FD859193FF819132
:100440007F01882309F4BAC1853239F493FD85917F
:1004500093FF81917F01853229F4B60190E00E94DB
:10046000FE03E7CF912C212C312CFFE1F315D8F0BE
:100470008B3279F038F4803279F08332A1F4232D75
:1004800020611DC08D3261F0803369F4232D21601D
:1004900016C0832D8260382EE32DE4603E2E2AC0E4
:1004A000F32DF8601DC037FC2DC020ED280F2A3039
:1004B00040F08E32B9F436FC81C1232D2064322EF7
:1004C00019C036FE06C08AE0989E200D1124922E97
:1004D00011C0EAE02E9E200D1124222EF32DF06291
:1004E0003F2E08C08C3621F4832D8068382E02C040
:1004F000883641F4F70193FD859193FF81917F0147
:100500008111B3CF982F9F7D9554933028F40C5FC1
:100510001F4F9FE399830DC0833631F0833771F00D
:10052000833509F059C021C0F801808189830E5FAD
:100530001F4F88248394912C530113C02801F2E0AB
:100540004F0E511CF801A080B18036FE03C0692D0A
:1005500070E002C06FEF7FEFC5010E94F3034C0112
:100560008201F32DFF773F2E16C0280122E0420EB4
:10057000511CF801A080B18036FE03C0692D70E0E7
:1005800002C06FEF7FEFC5010E94E8034C01F32D1D
:10059000F0683F2E820133FC1BC0822D90E088164C
:1005A0009906B0F4B60180E290E00E94FE032A941E
:1005B000F4CFF50137FC859137FE81915F01B601DB
:1005C00090E00E94FE0321102A9421E0821A9108F3
:1005D0008114910471F7E8C0843611F0893641F531
:1005E000F80137FE07C060817181828193810C5FC1
:1005F0001F4F08C060817181072E000C880B990B7A
:100600000E5F1F4FF32DFF763F2E97FF09C0909589
:100610008095709561957F4F8F4F9F4FF0683F2E6B
:100620002AE030E0A3010E943A04882E861845C0D3
:10063000853731F4232D2F7EB22E2AE030E025C0FD
:10064000932D997FB92E8F36C1F018F4883579F043
:10065000B5C0803719F0883721F0B0C0E92FE061CC
:10066000BE2EB4FE0DC0FB2DF460BF2E09C034FEBB
:100670000AC0292F2660B22E06C028E030E005C04F
:1006800020E130E002C020E132E0F801B7FE07C00F
:1006900060817181828193810C5F1F4F06C06081F0
:1006A000718180E090E00E5F1F4FA3010E943A0429
:1006B000882E8618FB2DFF773F2E36FE0DC0232D8A
:1006C0002E7FA22E891458F434FE0BC032FC09C0D0
:1006D000832D8E7EA82E05C0B82CA32C03C0B82C69
:1006E00001C0B92CA4FE0FC0FE01E80DF11D8081F0
:1006F000803321F49A2D997EA92E09C0A2FE06C04E
:10070000B394B39404C08A2D867809F0B394A3FC03
:1007100011C0A0FE06C0B21488F4280C922C9B18BD
:100720000EC0B21460F4B60180E290E00E94FE03B5
:10073000B394F7CFB21418F42B1802C0982C212CC4
:10074000A4FE10C0B60180E390E00E94FE03A2FE6A
:1007500017C0A1FC03C088E790E002C088E590E0E4
:10076000B6010CC08A2D867859F0A1FE02C08BE23A
:1007700001C080E2A7FC8DE2B60190E00E94FE037A
:10078000891438F4B60180E390E00E94FE039A9445
:10079000F7CF8A94F301E80DF11D8081B60190E056
:1007A0000E94FE038110F5CF222009F442CEB6014B
:1007B00080E290E00E94FE032A94F6CFF601868143
:1007C000978102C08FEF9FEF2B96E2E10C94B40467
:1007D000FC010590615070400110D8F7809590950C
:1007E0008E0F9F1F0895FC01615070400190011011
:1007F000D8F7809590958E0F9F1F08950F931F93A4
:10080000CF93DF93FB01238121FD03C08FEF9FEF87
:100810002CC022FF16C046815781248135814217A2
:10082000530744F4A081B1819D012F5F3F4F318375
:1008300020838C93268137812F5F3F4F3783268318
:1008400014C08B01EC01FB010084F185E02D0995BA
:10085000892BE1F6D80116968D919C9117970196F8
:1008600017969C938E931697CE01DF91CF911F918F
:100870000F910895FA01AA27283051F1203181F112
:10088000E8946F936E7F6E5F7F4F8F4F9F4FAF4F98
:10089000B1E03ED0B4E03CD0670F781F891F9A1FAB
:1008A000A11D680F791F8A1F911DA11D6A0F711D5F
:1008B000811D911DA11D20D009F468943F912AE06B
:1008C000269F11243019305D3193DEF6CF01089553
:1008D000462F4770405D4193B3E00FD0C9F7F6CF84
:1008E000462F4F70405D4A3318F0495D31FD40524C
:1008F000419302D0A9F7EACFB4E0A69597958795E2
:1009000077956795BA95C9F70097610571050895C0
:100910009B01AC010A2E069457954795379527956C
:10092000BA95C9F7620F731F841F951FA01D089504
:100930002F923F924F925F926F927F928F929F92EF
:10094000AF92BF92CF92DF92EF92FF920F931F93DD
:10095000CF93DF93CDB7DEB7CA1BDB0B0FB6F8948E
:10096000DEBF0FBECDBF09942A88398848885F84CE
:100970006E847D848C849B84AA84B984C884DF803F
:10098000EE80FD800C811B81AA81B981CE0FD11D23
:100990000FB6F894DEBF0FBECDBFED010895F894F9
:0209A000FFCF87
:1009A200013132334134353642373839432A302324
:1009B20044002532643A253032643A2530326400EC
:0809C20045726F6172650000CF
:00000001FF
