S00F00004C55545F52414D2E73726563E1
S11300000C942A000C943F000C943F000C943F0085
S11300100C943F000C943F000C943F000C943F0060
S11300200C943F000C943F000C943F000C943F0050
S11300300C943F000C943F000C943F000C943F0040
S11300400C943F000C943F000C943F000C943F0030
S11300500C943F0011241FBECFE5D4E0DEBFCDBF1A
S113006010E0A0E6B0E0ECE9F0E002C005900D92EB
S1130070A836B107D9F70E9441000C944C000C94A7
S113008000008FEF8ABB17BAE6B3E770F0E0E05ADE
S10F0090FF4F80818BBBF8CFF894FFCFAA
S10B009C3F065B4F666D7D0712
S9030000FC
