:100000000C9432000C944F000C944F000C944F0051
:100010000C944F000C944F000C944F000C944F0024
:100020000C944F000C944F000C944F000C944F0014
:100030000C944F000C944F000C944F000C944F0004
:100040000C944F000C944F000C944F000C944F00F4
:100050000C944F00D100E100FF0051010A01190189
:1000600028015C0111241FBECFE5D4E0DEBFCDBF67
:1000700010E0A0E6B0E0EEE8F4E002C005900D92DA
:10008000A03BB107D9F720E0A0EBB0E001C01D9282
:10009000A13BB207E1F70E949A000C9445020C9430
:1000A0000000CF93DF93CDB7DEB761970FB6F8941A
:1000B000DEBF0FBECDBF81E1E1E6F0E0DE011196CB
:1000C00001900D928A95E1F780E18ABB80E00BC038
:1000D0008AE08A95F1F700C089B380958F7031F47A
:1000E0009AB3990F9ABB9AB39111F2CF8823C1F0BA
:1000F0009AB320E002C096952F5F9031E1F790E02F
:1001000002C086959F5F8130E1F7220F220F920F88
:10011000E1E0F0E0EC0FFD1FE90FF11D808101C06F
:100120008FE761960FB6F894DEBF0FBECDBFDF91AB
:10013000CF910895CF93DF93CDB7DEB728970FB651
:10014000F894DEBF0FBECDBF81E392E39A8389832B
:1001500083E390E09C838B830E94C3011BBA00E081
:1001600010E0F12C0F2EFFE7DF2EF02D143691F466
:100170000E9451008F3731F02FE7D21631F0D82E80
:1001800010E008C0D82E10E005C0E82ED82E10E0F0
:10019000FF24F394802F90E0FC01E65DFF4F0C9468
:1001A00031020E94FA0182E790E00E94240261E09D
:1001B00082E00E94050280E890E00E94240201E0B3
:1001C00090C0FF2009F48DC083E4E81207C00E94AC
:1001D000FA018EE890E00E94240204E08FEC8E0D7C
:1001E000883008F074C00E94FA0183E990E00E9410
:1001F00024028E2D0E941B0202E0F12C72C09FEFA0
:1002000021E18AE7915020408040E1F700C00000E2
:1002100000E067C0FF2009F464C080ED8E0D8A30D5
:1002200008F057C0ED828AE20E941B0205E0F12C23
:1002300058C0FF2009F455C080ED8E0D8A3008F0BB
:100240004BC0EE828AE20E941B0206E0F12C49C0FC
:10025000FF2009F446C080ED8E0D8A3008F03FC0C3
:10026000EF828AE20E941B0243E050E0BE016F5F12
:100270007F4FCE0105960E943702892B49F40E94D8
:10028000FA018BE990E00E94240203E0F12C29C0DE
:100290000E94FA0184EA90E00E94240207E0F12C17
:1002A00020C09FEF21E18AE7915020408040E1F794
:1002B00000C0000000E015C09FEF21E18AE79150E7
:1002C00020408040E1F700C0000000E00AC0F12CAF
:1002D00008C000E0F12C05C000E0F12C02C000E0F5
:1002E000F12C1F5F43CF962F92959F7092BB811187
:1002F00004C082B38F7E82BB03C082B3806182BBA5
:100300008091B0008F5F8093B00082B3806282BB27
:100310008091B0008F5F8093B0008091B0008F5FBC
:100320008093B00082B38F7D82BB8091B0008F5FDD
:100330008093B00080916000882319F010926000D3
:10034000089582B3807F82BB82B36F70682B62BBDB
:100350008091B0008F5F8093B00082B3806282BBD7
:100360008091B0008F5F8093B0008091B0008F5F6C
:100370008093B00082B38F7D82BB8091B0008F5F8D
:100380008093B000089512BA8FEF81BB2FEF89E6FA
:1003900098E1215080409040E1F700C000006CE2FD
:1003A00080E00E94730125E82A95F1F700006CE2D5
:1003B00080E00E94730185E88A95F1F700006EE005
:1003C00080E00E94730195E89A95F1F7000066E0DD
:1003D00080E00E94730125E82A95F1F7000061E0B2
:1003E00080E00E9473018FE697E10197F1F700C06A
:1003F0000000089561E080E00E9473018FE99FE0B2
:100400000197F1F700C0000008958150823090F408
:10041000662381F0613170F490E00296615020E42F
:10042000829F600D112480E00E94730185E88A9507
:10043000F1F700000895682F81E00E94730185E8BC
:100440008A95F1F700000895CF93DF93EC0103C084
:1004500021960E941B0288818111FACFDF91CF91F2
:100460000895EE0FFF1F0590F491E02D0994FB0114
:10047000DC014150504030F08D910190801919F409
:0E0480000020B9F7881B990B0895F894FFCF60
:10048E00013132334134353642373839432A30233D
:10049E00440053756E61206C6120312E2E382C0075
:1004AE00432070656E74727520636F643A00436FFB
:1004BE00643D0053756E206C612000446573636863
:1004CE0069732100436F6420696E76616C69640004
:00000001FF
