:100000000C942A000C9447000C9447000C94470071
:100010000C9447000C9447000C9447000C94470044
:100020000C9447000C9447000C9447000C94470034
:100030000C9447000C9447000C9447000C94470024
:100040000C9447000C9447000C9447000C94470014
:100050000C94470011241FBECFE5D4E0DEBFCDBF16
:1000600010E0A0E6B0E0E0E9F3E002C005900D92F8
:10007000AA3AB107D9F720E0AAEAB0E001C01D9280
:10008000AB3AB207E1F70E9407010C94C6010C9449
:100090000000962F92959F7092BB811104C082B38D
:1000A0008F7E82BB03C082B3806182BB8091AA0035
:1000B0008F5F8093AA0082B3806282BB8091AA0086
:1000C0008F5F8093AA008091AA008F5F8093AA001F
:1000D00082B38F7D82BB8091AA008F5F8093AA003C
:1000E00080916000882319F010926000089582B317
:1000F000807F82BB82B36F70682B62BB8091AA0045
:100100008F5F8093AA0082B3806282BB8091AA0035
:100110008F5F8093AA008091AA008F5F8093AA00CE
:1001200082B38F7D82BB8091AA008F5F8093AA00EB
:10013000089512BA8FEF81BB2FEF89E698E1215025
:1001400080409040E1F700C000006CE280E00E9437
:10015000490025E82A95F1F700006CE280E00E9452
:10016000490085E88A95F1F700006EE080E00E9482
:10017000490095E89A95F1F7000066E080E00E945A
:10018000490025E82A95F1F7000061E080E00E942F
:1001900049008FE697E10197F1F700C0000008954C
:1001A00061E080E00E9449008FE99FE00197F1F74C
:1001B00000C0000008958150823090F4662381F0E1
:1001C000613170F490E00296615020E4829F600DEE
:1001D000112480E00E94490085E88A95F1F700002B
:1001E0000895682F81E00E94490085E88A95F1F71B
:1001F00000000895CF93DF93EC0103C021960E9485
:10020000F10088818111FACFDF91CF910895CF93CA
:10021000DF93CDB7DEB761970FB6F894DEBF0FBEA0
:10022000CDBF81E1E9E9F0E0DE01119601900D9288
:100230008A95E1F70E94990081E40E94F1002FEF76
:1002400089E698E1215080409040E1F700C000002D
:100250000E94D0002FEF84E39CE02150804090402A
:10026000E1F700C0000081E690E00E94FA0067E03C
:1002700082E00E94DB0087E690E00E94FA002FEF08
:1002800089E698E1215080409040E1F700C00000ED
:100290000E94D0002FEF84E39CE0215080409040EA
:1002A000E1F700C0000010E013C0E1E0F0E0EC0F67
:1002B000FD1FE10FF11D80810E94F1002FEF84E30B
:1002C0009CE0215080409040E1F700C000001F5F9B
:1002D000103158F361E082E00E94DB008EE690E08E
:1002E0000E94FA0010E10EC0612F82E00E94DB0044
:1002F0002FEF84E39CE0215080409040E1F700C064
:10030000000011501111F0CF10E10EC0612F81E0FB
:100310000E94DB002FEF84E39CE02150804090405E
:10032000E1F700C0000011501111F0CF0E94D00081
:100330002FEF89E698E1215080409040E1F700C01E
:10034000000061E081E00E94DB008FE790E00E9406
:10035000FA0061E082E00E94DB008DE890E00E94FC
:10036000FA002FEF8EE994E2215080409040E1F7AF
:1003700000C000000E94D0002FEF84E39CE02150D9
:1003800080409040E1F700C0000056CFF894FFCFC6
:100390000148656C6C6F006D6963726F210067685E
:1003A000696A6B6C6D6E6F707172737475760045EF
:1003B00078656D706C75206372656174006465208A
:1003C00070726F6665736F72003031323334353658
:0A03D0003738396162636465660026
:00000001FF
